:020000040800F2
:100000000000022099010008ED010008ED01000840
:10001000ED010008ED010008ED01000800000000FE
:10002000000000000000000000000000ED010008DA
:10003000ED01000800000000ED010008ED010008DE
:10004000ED010008ED010008ED010008ED010008D8
:10005000ED010008ED010008ED010008ED010008C8
:10006000ED010008ED010008ED010008ED010008B8
:10007000ED010008ED010008ED010008ED010008A8
:10008000ED010008ED010008ED010008000000008E
:10009000000000000000000000000000ED0100086A
:1000A000ED010008ED010008ED010008ED01000878
:1000B000ED010008ED010008ED010008ED01000868
:1000C000ED010008ED010008ED010008ED01000858
:1000D000ED010008ED010008ED010008000000003E
:1000E000ED010008ED010008ED010008000000002E
:1000F000000000000000000000000000ED0100080A
:1001000000000000ED010008ED010008ED0100080D
:1001100000000000000000000000000000000000DF
:10012000ED010008ED010008ED010008ED010008F7
:10013000ED010008000000000000000000000000C9
:10014000000000000000000000000000ED010008B9
:10015000ED010008ED010008ED010008ED010008C7
:10016000ED010008ED0100080000000000000000A3
:10017000000000000000000000000000000000007F
:1001800000000000ED010008000000000000000079
:10019000ED010008ED0100080E4885460E480F49A4
:1001A0000F4A914200D304E050F8043B41F8043B6D
:1001B000F7E70C490C4A0023914200D302E041F8D2
:1001C000043BF9E700F022F800F082F800F010F8A4
:1001D000FEE70000000002205C0300080000002091
:1001E000000000200000002000000020FEE70000CA
:1001F00000B585B002AB01A8019300F06BF801A82F
:1002000000F06CF8002005B05DF804FB2D4AD2F830
:1002100000389907FBD5D2F840182B4B41F080519C
:10022000C2F840181868274920F440401860186840
:1002300040F400401860D2F8003C23F00703C2F8F5
:10024000003CD2F8003C43F4E06343F00203C2F800
:10025000003CD2F8003823F08073C2F80038D1F89F
:1002600000389A01FBD4194BC1F80438D1F808388A
:10027000144A23F4E053C1F80838D1F8083843F49D
:100280008053C1F80838D1F8003843F08073C1F8C2
:100290000038D2F800389B01FBD5D2F8083809495C
:1002A00023F00303C2F80838D2F8083843F00203F9
:1002B000C2F80838D1F8083803F00C03082BF9D13C
:1002C000704700BF0030024000700040102A000755
:1002D000704700BF006800F01BB800BF08B50446B7
:1002E000206800F02BF8084B00BF1A46013B002A9B
:1002F000FAD1206800F02AF8044B00BF1A46013BEF
:10030000002AFAD1ECE700BFBF5C15007FDE800257
:100310000849094BD1F8302842F00102C1F83028D1
:100320001A6822F440621A601A6842F480621A6005
:10033000704700BF0030024000000240024A53698B
:1003400043F020035361704700000240024A5369A2
:0C03500023F020035361704700000240BE
:0400000508000000EF
:00000001FF
